:020000040800F2
:1000000024100020ED000008A5010008A50100084B
:10001000A5010008A5010008A501000880B485B06D
:1000200000AF78600CE04FF00003FB6003E0FB687A
:1000300003F10103FB60FA6840F2F3139A42F6D928
:100040007B68002B0CBF00230123DBB27A6802F12E
:10005000FF327A60002BE6D107F11407BD4680BC61
:10006000704700BF80B500AF41F21803C4F202032D
:1000700041F21802C4F20202126842F004021A604D
:100080004FF40063C4F201034FF40062C4F20102B2
:10009000126822F470021A604FF40063C4F2010384
:1000A0004FF40062C4F20102126842F400121A60B6
:1000B00040F60C03C4F2010340F60C02C4F2010244
:1000C000126822F020021A6040F60C03C4F2010309
:1000D00040F60C02C4F20102126882F020021A609B
:1000E0004FF4FA70FFF79AFFEEE700BF80B586B0D5
:1000F00000AF40F21802C2F2000240F20003C2F266
:100100000003D31A7B6140F2B413C0F600033B61D5
:1001100040F20003C2F20003FB600CE03B691B7875
:10012000DAB2FB681A70FB6803F10103FB603B69FC
:1001300003F101033B617B69002B0CBF002301230A
:10014000DBB27A6902F1FF327A61002BE6D140F22C
:100150002402C2F2000240F21803C2F20003D31AD2
:10016000BB6040F21803C2F200037B6007E07B68CB
:100170004FF000021A707B6803F101037B60BB68DB
:10018000002B0CBF00230123DBB2BA6802F1FF325F
:10019000BA60002BEBD1FFF765FF07F11807BD46EA
:1001A00080BD00BF80B500AFFFF7A0FF80BD00BFDE
:0401B0000A00000041
:1001B4004D696E612047616D616C20466179657A95
:0801C400204C61626962000039
:04000005080000ED02
:00000001FF
