:020000040800F2
:1000000000280020FD0100084D0200084D020008F4
:100010004D0200084D0200084D02000800000000DB
:100020000000000000000000000000004D02000879
:100030004D020008000000004D0200084D020008BB
:100040004D0200084D0200084D0200084D02000854
:100050004D0200084D0200084D0200084D02000844
:100060004D0200084D0200084D0200084D02000834
:100070004D0200084D0200084D0200084D02000824
:100080004D0200084D0200084D0200084D02000814
:100090004D0200084D0200084D0200084D02000804
:1000A0004D0200084D0200084D0200084D020008F4
:1000B0004D0200084D0200084D0200084D020008E4
:1000C0004D0200084D0200084D0200084D020008D4
:1000D0004D0200084D0200084D0200084D020008C4
:1000E0004D0200084D020008000000004D0200080B
:1000F0004D0200084D0200084D0200084D020008A4
:100100004D0200084D0200084D0200084D02000893
:100110004D0200084D0200084D0200084D02000883
:100120004D0200084D0200084D0200084D02000873
:1001300010B5054C237833B9044B13B10448AFF321
:1001400000800123237010BD00000020000000008B
:100150009802000808B5034B1BB103490348AFF3ED
:10016000008008BD00000000040000209802000884
:1001700080B485B000AF786009E00023FB6002E046
:10018000FB680133FB60FB68B3F5FA7FF8D37B684B
:100190005A1E7A60002BF0D100BF00BF1437BD4655
:1001A00080BC704780B500AF114B1B68104A43F00C
:1001B000040313600F4B1B680E4A23F47003136093
:1001C0000C4B1B680B4A43F4001313600A4B1B686B
:1001D000094A23F020031360074B1B68064A83F08B
:1001E000200313604FF4FA70FFF7C2FFF4E700BF7B
:1001F00018100240000801400C0801400D488546D7
:10020000AFF300800C480D490D4A002302E0D4589A
:10021000C4500433C4188C42F9D30A4A0A4C002350
:1002200001E013600432A242FBD300F011F8FFF7A3
:10023000B9FFFEE700280020000000200000002099
:10024000B8020008000000201C000020FEE70000AB
:1002500070B500260C4D0D4C641BA410A64209D1AC
:1002600000F01AF800260A4D0A4C641BA410A6429E
:1002700005D170BD55F8043B98470136EEE755F8B7
:10028000043B98470136F2E7B0020008B0020008CC
:10029000B0020008B4020008F8B500BFF8BC08BC02
:1002A0009E467047F8B500BFF8BC08BC9E46704734
:0402B00055010008EC
:0402B400310100080C
:04000005080001FDF1
:00000001FF
