:1000000000040020E9000000A1010000A10100009F
:10001000A1010000A1010000A101000080B485B091
:1000200000AF78600CE04FF00003FB6003E0FB687A
:1000300003F10103FB60FA6840F2E7339A42F6D914
:100040007B68002B0CBF00230123DBB27A6802F12E
:10005000FF327A60002BE6D107F11407BD4680BC61
:10006000704700BF80B500AF4EF20813C4F20F0313
:100070004FF020021A604FF00100FFF7CFFF4FF45E
:10008000A843C4F202034FF4A842C4F20202126869
:1000900042F008021A6045F21C53C4F2020345F212
:1000A0001C52C4F20202126842F008021A6045F2C1
:1000B000FC33C4F2020345F2FC32C4F202021268BD
:1000C00022F008021A6045F2FC33C4F2020345F242
:1000D000FC32C4F20202126882F008021A604FF485
:1000E0009670FFF79BFFEEE780B586B000AF40F259
:1000F0000002C2F2000240F20003C2F20003D31A6F
:100100007B6140F2AC13C0F200033B6140F200039C
:10011000C2F20003FB600CE03B691B78DAB2FB68BB
:100120001A70FB6803F10103FB603B6903F10103F3
:100130003B617B69002B0CBF00230123DBB27A6992
:1001400002F1FF327A61002BE6D140F20042C2F2A6
:10015000000240F20003C2F20003D31ABB6040F277
:100160000003C2F200037B6007E07B684FF00002EF
:100170001A707B6803F101037B60BB68002B0CBF26
:1001800000230123DBB2BA6802F1FF32BA60002B10
:10019000EBD1FFF767FF07F11807BD4680BD00BF31
:0C01A00080B500AFFFF7A0FF80BD00BFDE
:04000003000000E910
:00000001FF
